:060000000A128A1100291A
:10000800F000030EF1000B1912200C1819208C189F
:100018002420710E8300F00E700E09000313831262
:10002800FC3081000B11662108000B308F00CD30A9
:100038008E000C10A00A20088500302042200800FD
:100048008C10A10B08000A30A10006182C282E28B5
:100058000610080006140800A20A22080A3C031326
:100068008312031D08003828A201A30A2308063CAE
:1000780003138312031D0800A30108002008003C95
:1000880003138312031D08000030A200A300080018
:100200003A210A2111211E212C215221031383128C
:100210005F210829031383160F140F178F120F1273
:100220000800031383168112811101158114011036
:1002300003138312FC3081000B1108000313831297
:100240001013901610129011901010140B308F0094
:10025000CD308E000C10080003138316313092004D
:100260000313831292141214121792161216921577
:1002700012150800031783168801890103138316DA
:100280008701850106100810881003138312860168
:1002900085018701A0010A30A100A601A201A301E6
:1002A000A4010800031383160C148C140313831287
:1002B0000B178B178B160B110C108C1008002308D2
:1002C0000022A40022080022A500080008108810BF
:1002D00026186F292408870088142614080025088A
:0802E000870008142610080035
:100400008A018A140F398207BF348634DB34CF3433
:10041000E634ED34FD348734FF34EF34F734FC3404
:08042000B934DE34F934F13483
:04400E00D420FF3F7C
:00000001FF
